S01600005350495F44656D6F5F536C6176652E73726563E4
S11300000C945A000C946C000C946C000C946C00CE
S11300100C946C000C946C000C946C000C946C00AC
S11300200C946C000C946C000C946C000C946C009C
S11300300C946C000C946C000C946C000C946C008C
S11300400C946C000C946C000C946C000C946C007C
S11300500C946C000C946C000C946C000C946C006C
S11300600C946C000C946C000C946C000C946C005C
S11300700C946C000C946C000C946C000C946C004C
S11300800C946C000C946C000C946C000C946C003C
S11300900C946C000C946C000C946C000C944C014B
S11300A00C946C000C946C000C946C000C946C001C
S11300B00C946C0011241FBECFEFD8E0DEBFCDBF7F
S11300C021E0A0E0B1E001C01D92A530B207E1F744
S11300D00E941A010C9440040C940000ECE7F0E038
S11300E090819F73892B808380818F7D682B6083AF
S11300F0EAE7F0E08081887F482B4083ABE7B0E0FB
S11301008C91887F282B2C9380818F77808308950E
S1130110EEE7F0E0908121E030E0082E02C0220FEB
S1130120331F0A94E2F7922B9083ECE7F0E090817E
S1130130907F892B8083EAE7F0E08081806C808364
S113014080917A0086FDFCCFEAE7F0E080818F772A
S11301508083EEE7F0E0808120952823208380913E
S113016079000895EF920F93E12C00E021E041E043
S113017060E081E00E94950320E047E060E280E4D3
S11301800E946E00789460E08EE00E94760160E048
S11301908FE00E94760160E080E10E94760160E0D9
S11301A081E10E94760160E082E10E94760160E0D4
S11301B083E10E94760160E080E00E94760160E0C5
S11301C081E00E9476010F91EF900895CF93C82F9C
S11301D0682F661F6627661F8EE00E94D502C6FB45
S11301E0662760F98FE00E94D502C5FB662760F997
S11301F080E10E94D502C4FB662760F981E10E9478
S1130200D502C3FB662760F982E10E94D502C2FBD6
S1130210662760F983E10E94D502C1FB662760F975
S113022080E00E94D5026C2F617081E00E94D502AB
S1130230CF9108950E94B200809100018823E9F0D3
S11302401092000180910301823A51F0833A71F0D7
S1130250813A81F485E00E9488008093AE000DC04D
S113026082E00E9488008093AE0007C08FEF8093E5
S1130270AE0003C08FEF8093AE008091010188230C
S1130280D9F21092010180910301833AA9F6809179
S113029004010E94E600D0CF1F920F920FB60F9276
S11302A011248F93EF93FF93E0910201F0E080918A
S11302B0AE00ED5FFE4F808380910201811109C081
S11302C0809102018F5F8093020181E0809300019D
S11302D005C01092020181E080930101FF91EF912A
S11302E08F910F900FBE0F901F901895863008F0D5
S11302F045C061111CC094B1482F477021E030E023
S113030002C0220F331F4A95E2F7292B24B9843007
S113031029F4E9ECF0E090819F7E9083833009F02A
S113032043C1E9ECF0E08081877F808308956130E8
S113033099F444B1877021E030E0B90102C0660F3E
S1130340771F8A95E2F7CB01962F9095942394B961
S113035095B1892B85B90895623009F025C144B15E
S1130360877021E030E0B90102C0660F771F8A95DB
S1130370E2F7CB018095842384B908959AEF980F0E
S1130380963008F052C0611117C047B190E0029650
S113039087709078992324F40197886F9F6F019652
S11303A021E030E0B90102C0660F771F8A95E2F7B9
S11303B0CB01842B87B908956130E1F447B190E013
S11303C0029687709078992324F40197886F9F6F21
S11303D0019621E030E0B90102C0660F771F8A95CB
S11303E0E2F7CB01962F9095942397B998B1892B76
S11303F088B90895623009F0D7C047B190E00296F9
S113040087709078992324F40197886F9F6F0196E1
S113041021E030E0B90102C0660F771F8A95E2F748
S1130420CB018095842387B9089594EF980F983071
S113043008F065C061112AC09AB1282F30E02C5F02
S11304403F4F27703078332334F421503109286F1B
S11304503F6F2F5F3F4F41E050E0BA0102C0660F8B
S1130460771F2A95E2F79B01292B2AB98C3029F4AE
S1130470E1ECF0E090819F7E90838D3009F094C090
S1130480E1ECF0E08081877F808308956130E1F4BE
S11304904AB190E0049687709078992324F40197E8
S11304A0886F9F6F019621E030E0B90102C0660FAA
S11304B0771F8A95E2F7CB01962F909594239AB9EA
S11304C09BB1892B8BB90895623009F06DC04AB194
S11304D090E0049687709078992324F40197886FAC
S11304E09F6F019621E030E0B90102C0660F771FCB
S11304F08A95E2F7CB01809584238AB908959CEE0E
S1130500980F923008F050C0611117C04DB190E0BF
S1130510029787709078992324F40197886F9F6FCE
S1130520019621E030E0B90102C0660F771F8A9579
S1130530E2F7CB01842B8DB908956130E1F44DB11C
S113054090E0029787709078992324F40197886F3C
S11305509F6F019621E030E0B90102C0660F771F5A
S11305608A95E2F7CB01962F909594239DB99EB17D
S1130570892B8EB908956230B9F44DB190E0029799
S113058087709078992324F40197886F9F6F019660
S113059021E030E0B90102C0660F771F8A95E2F7C7
S11305A0CB01809584238DB908958630F8F46623B1
S11305B071F045B1877021E030E0B90102C0660FE7
S11305C0771F8A95E2F7CB01842B85B9089545B14D
S11305D0877021E030E0B90102C0660F771F8A9569
S11305E0E2F7CB018095842385B908959AEF980F9B
S11305F0963088F56623B9F048B190E0029687708A
S11306009078992324F40197886F9F6F019621E0D5
S113061030E0B90102C0660F771F8A95E2F7CB017B
S1130620842B88B9089548B190E002968770907839
S1130630992324F40197886F9F6F019621E030E09D
S1130640B90102C0660F771F8A95E2F7CB01809546
S1130650842388B9089594EF980F983088F5662319
S1130660B9F04BB190E0049687709078992324F404
S11306700197886F9F6F019621E030E0B90102C0B5
S1130680660F771F8A95E2F7CB01842B8BB9089507
S11306904BB190E0049687709078992324F40197E5
S11306A0886F9F6F019621E030E0B90102C0660FA8
S11306B0771F8A95E2F7CB01809584238BB908953F
S11306C09CEE980F923080F56623B9F04EB190E01D
S11306D0029787709078992324F40197886F9F6F0D
S11306E0019621E030E0B90102C0660F771F8A95B8
S11306F0E2F7CB01842B8EB908954EB190E00297B6
S113070087709078992324F40197886F9F6F0196DE
S113071021E030E0B90102C0660F771F8A95E2F745
S1130720CB01809584238EB90895EF92FF920F93A5
S11307301F93CF93DF93F82EC62FD42F122F81E06F
S1130740E81241C0ECEAF0E080818061808362E0DD
S113075086E00E94760160E085E10E94760160E017
S113076084E10E94760161E084E10E94D50260E0A8
S113077087E00E947601F2FE06C0EDEAF0E0808197
S11307808160808305C0EDEAF0E080818E7F808304
S1130790F1FE06C0ECEAF0E080818260808305C04F
S11307A0ECEAF0E080818D7F8083F0FE06C0ECEA05
S11307B0F0E08081816080831BC0ECEAF0E08081FE
S11307C08E7F808315C0ECEAF0E080818F7E808389
S11307D060E086E00E94760162E085E10E94760195
S11307E062E084E10E94760162E087E00E94760183
S11307F0112331F0ECEAF0E080818064808305C04D
S1130800ECEAF0E080818F7B8083DD2331F0ECEA39
S1130810F0E080818068808305C0ECEAF0E08081AC
S11308208F778083002331F0ECEAF0E080818062EE
S1130830808305C0ECEAF0E080818F7D8083C1FF76
S113084006C0ECEAF0E080818860808305C0ECEAB1
S1130850F0E08081877F8083C0FF06C0ECEAF0E08F
S113086080818460808305C0ECEAF0E080818B7F26
S11308708083DF91CF911F910F91FF90EF900895A6
S1070880F894FFCF16
S9030000FC
