:100000000C9434000C9451000C9451000C94510049
:100010000C9451000C9451000C9451000C9451001C
:100020000C9451000C9451000C9451000C9451000C
:100030000C9451000C9451000C9451000C945100FC
:100040000C9451000C9451000C948D020C945100AE
:100050000C9451000C9438010C9451000C945100F4
:100060000C9451000C94510011241FBECFEFD8E026
:10007000DEBFCDBF11E0A0E0B1E0EEE2F0E102C0F2
:1000800005900D92AA31B107D9F721E0AAE1B1E0BC
:1000900001C01D92AD31B207E1F70E94FB010C9443
:1000A00015080C940000ECE7F0E080818064808308
:1000B00080818F77808380818F7D8083EAE7F0E085
:1000C00010828081806880838081886080838081C5
:1000D00087608083EEE7F0E080818360808378949E
:1000E0000895ECE7F0E09081987F8770892B8083FA
:1000F000EAE7F0E080818064808380917A0086FD69
:10010000FCCF809178009091790008958F929F9212
:10011000AF92BF92CF92DF92EF92FF92CF93DF9395
:10012000BC0180E090E00E94080420E030E040EA5A
:1001300050E40E94960420E030EC4FE754E40E9423
:1001400060034B015C010E94D2036B017C01072E0E
:10015000000C880B990B0E940A049B01AC01C5019D
:10016000B4010E94F30220E030E048EC52E40E9427
:1001700096040E94D203EB0180E38C0D0E94D00113
:100180008EE20E94D001CE016AE070E00E94030579
:10019000C82F80E3860F0E94D00180E38C0F0E945D
:1001A000D00186E50E94D001DF91CF91FF90EF90C2
:1001B000DF90CF90BF90AF909F908F9008958F92D7
:1001C0009F92AF92BF92CF92DF92EF92FF92CF9326
:1001D000DF93BC0180E090E00E94080420E030E062
:1001E00040EA50E40E94960420E030EC4FE754E4EB
:1001F0000E9460034B015C010E94D2036B017C01F1
:10020000072E000C880B990B0E940A049B01AC017D
:10021000C501B4010E94F30220E030E048EC52E452
:100220000E9496040E94D203EB0180E38C0D0E9491
:10023000D0018EE20E94D001CE016AE070E00E94FF
:100240000305C82F80E3860F0E94D00180E38C0F46
:100250000E94D00186E50E94D001DF91CF91FF90EE
:10026000EF90DF90CF90BF90AF909F908F900895C8
:100270001F920F920FB60F9211240F900FBE0F9086
:100280001F90189580FF04C09BB190619BB903C07B
:100290009BB19F7E9BB981FF04C09BB190629BB9CB
:1002A00003C09BB19F7D9BB982FF04C09BB190644A
:1002B0009BB903C09BB19F7B9BB983FF04C09BB1DB
:1002C00090689BB903C09BB19F779BB984FF04C022
:1002D00095B1916095B903C095B19E7F95B985FFA1
:1002E00004C095B1926095B903C095B19D7F95B951
:1002F00086FF04C095B1946095B903C095B19B7F0A
:1003000095B9882324F485B1886085B9089585B1AD
:10031000877F85B908959BB19B7F9BB90E9442015D
:100320008BB188608BB98FE79EE30197F1F700C02E
:1003300000008BB1877F8BB908958AB18C6F8AB921
:100340001BB884B18F6084B915B88FE19EE4019722
:10035000F1F700C0000088E30E948B018FE19EE46A
:100360000197F1F700C000008CE00E948B018FE341
:100370009CE90197F1F700C0000086E00E948B0124
:100380008FE39CE90197F1F700C0000081E00E9433
:100390008B018FE39CE90197F1F700C000000895FD
:1003A0009BB194609BB90E9442018BB188608BB96C
:1003B0008FE79EE30197F1F700C000008BB1877FC4
:1003C0008BB90895CF93DF93EC0103C00E94D00155
:1003D000219688818111FACFDF91CF9108958130E4
:1003E00019F48FE7860F04C0823021F48FEB860F5B
:1003F0000E948B0108950E949D012FEF89EF90E0EC
:10040000215080409040E1F700C000000E9453005E
:100410000E946D0280E00E947100EC018115944001
:1004200010F0CFEFD3E061E081E00E94EF0180E0C7
:1004300091E00E94E20166E081E00E94EF01CE01BE
:100440000E9486008FEF94E32CE081509040204082
:10045000E1F700C0000081E00E947100EC01C115CD
:1004600084E0D80710F0CFEFD3E061E082E00E9493
:10047000EF0186E091E00E94E20166E082E00E94E6
:10048000EF01CE010E94DF009FEF24E38CE091504A
:1004900020408040E1F700C000006CE081E00E9455
:1004A000EF018CE091E00E94E2016CE082E00E94AA
:1004B000EF0182E191E00E94E2016CE082E00E94A3
:1004C000EF010E94C2029FEF24E38CE09150204094
:1004D0008040E1F700C000009DCF8AB18E7F8AB9CD
:1004E0008AB182608AB9E0ECF0E01082808182609B
:1004F0008083E1ECF0E01082808188698083E2EC07
:10050000F0E010828081866080838FEC90E0909391
:10051000C5008093C400789408951F920F920FB67F
:100520000F9211248F939F93EF93FF93E6ECF0E0EB
:10053000808180931C0180911C01808380911C012B
:100540008B3251F480911A0190911B010196909386
:100550001B0180931A010DC080911C018D3249F45A
:1005600080911A0190911B01019790931B01809338
:100570001A01FF91EF919F918F910F900FBE0F90F5
:100580001F9018950F931F93CF93DF93CDB7DEB7CE
:100590002A970FB6F894DEBF0FBECDBF80911B0126
:1005A0008F9380911A018F9387E191E09F938F93AE
:1005B0008E010F5F1F4F1F930F930E942B05C801E1
:1005C0000E94E2010F900F900F900F900F900F90EC
:1005D0002A960FB6F894DEBF0FBECDBFDF91CF9144
:1005E0001F910F9108955058BB27AA270E940B0313
:1005F0000C945C040E944E0438F00E94550420F0D4
:1006000039F49F3F19F426F40C944B040EF4E09552
:10061000E7FB0C944504E92F0E946D0458F3BA17C8
:10062000620773078407950720F079F4A6F50C9408
:100630008F040EF4E0950B2EBA2FA02D0B01B901FB
:1006400090010C01CA01A0011124FF27591B99F048
:10065000593F50F4503E68F11A16F040A22F232F54
:10066000342F4427585FF3CF469537952795A795A4
:10067000F0405395C9F77EF41F16BA0B620B730B4B
:10068000840BBAF09150A1F0FF0FBB1F661F771FBC
:10069000881FC2F70EC0BA0F621F731F841F48F471
:1006A000879577956795B795F7959E3F08F0B0CFFA
:1006B0009395880F08F09927EE0F979587950895E1
:1006C0000E9474030C945C040E94550458F00E942C
:1006D0004E0440F029F45F3F29F00C944504511179
:1006E0000C9490040C944B040E946D0468F39923BD
:1006F000B1F3552391F3951B550BBB27AA2762171E
:100700007307840738F09F5F5F4F220F331F441F2A
:10071000AA1FA9F335D00E2E3AF0E0E832D091505E
:100720005040E695001CCAF72BD0FE2F29D0660F4B
:10073000771F881FBB1F261737074807AB07B0E88E
:1007400009F0BB0B802DBF01FF2793585F4F3AF094
:100750009E3F510578F00C9445040C9490045F3F43
:10076000E4F3983ED4F3869577956795B795F7951A
:100770009F5FC9F7880F911D9695879597F9089502
:10078000E1E0660F771F881FBB1F6217730784079E
:10079000BA0720F0621B730B840BBA0BEE1F88F7AD
:1007A000E09508950E94D9036894B1110C949004C7
:1007B00008950E94750488F09F5798F0B92F9927E3
:1007C000B751B0F0E1F0660F771F881F991F1AF03C
:1007D000BA95C9F714C0B13091F00E948F04B1E00E
:1007E00008950C948F04672F782F8827B85F39F00D
:1007F000B93FCCF3869577956795B395D9F73EF4D5
:1008000090958095709561957F4F8F4F9F4F08957C
:10081000E89409C097FB3EF490958095709561959A
:100820007F4F8F4F9F4F9923A9F0F92F96E9BB2750
:100830009395F695879577956795B795F111F8CFCC
:10084000FAF4BB0F11F460FF1BC06F5F7F4F8F4F37
:100850009F4F16C0882311F096E911C0772321F02D
:100860009EE8872F762F05C0662371F096E8862FC5
:1008700070E060E02AF09A95660F771F881FDAF71C
:10088000880F9695879597F9089597F99F6780E85F
:1008900070E060E008959FEF80EC089500240A94D2
:1008A0001616170618060906089500240A9412164B
:1008B0001306140605060895092E0394000C11F47E
:1008C000882352F0BB0F40F4BF2B11F460FF04C02B
:1008D0006F5F7F4F8F4F9F4F089557FD9058440F84
:1008E000551F59F05F3F71F04795880F97FB991F8F
:1008F00061F09F3F79F0879508951216130614064C
:10090000551FF2CF4695F1DF08C0161617061806D8
:10091000991FF1CF86957105610508940895E894B3
:10092000BB2766277727CB0197F908950E94A90472
:100930000C945C040E944E0438F00E94550420F090
:10094000952311F00C9445040C944B0411240C9441
:1009500090040E946D0470F3959FC1F3950F50E0D1
:10096000551F629FF001729FBB27F00DB11D639F61
:10097000AA27F00DB11DAA1F649F6627B00DA11D07
:10098000661F829F2227B00DA11D621F739FB00DAD
:10099000A11D621F839FA00D611D221F749F33271D
:1009A000A00D611D231F849F600D211D822F762FB6
:1009B0006A2F11249F5750409AF0F1F088234AF093
:1009C000EE0FFF1FBB1F661F771F881F91505040FF
:1009D000A9F79E3F510580F00C9445040C949004B7
:1009E0005F3FE4F3983ED4F3869577956795B79586
:1009F000F795E7959F5FC1F7FE2B880F911D9695A0
:100A0000879597F9089597FB072E16F4009407D061
:100A100077FD09D00E94170507FC05D03EF490959C
:100A200081959F4F0895709561957F4F0895AA1BFA
:100A3000BB1B51E107C0AA1FBB1FA617B70710F0C9
:100A4000A61BB70B881F991F5A95A9F780959095FB
:100A5000BC01CD010895AEE0B0E0E1E3F5E00C9417
:100A6000EC070D891E8986E08C831A8309838FEF3A
:100A70009FE79E838D83AE01475E5F4F6F89788DC0
:100A8000CE0101960E944D05EF81F885E00FF11F20
:100A900010822E96E4E00C940808ABE0B0E0E3E5A9
:100AA000F5E00C94DE076C017B018A01FC011782E2
:100AB0001682838181FFCCC1CE0101963C01F601F3
:100AC0009381F70193FD859193FF81917F018823A5
:100AD00009F4BAC1853239F493FD859193FF819170
:100AE0007F01853229F4B60190E00E944407E7CFE8
:100AF000912C212C312CFFE1F315D8F08B3279F0B9
:100B000038F4803279F08332A1F4232D20611DC0A6
:100B10008D3261F0803369F4232D216016C0832D5E
:100B20008260382EE32DE4603E2E2AC0F32DF8605B
:100B30001DC037FC2DC020ED280F2A3040F08E322A
:100B4000B9F436FC81C1232D2064322E19C036FE43
:100B500006C08AE0989E200D1124922E11C0EAE072
:100B60002E9E200D1124222EF32DF0623F2E08C060
:100B70008C3621F4832D8068382E02C0883641F4EB
:100B8000F70193FD859193FF81917F018111B3CF8F
:100B9000982F9F7D9554933028F40C5F1F4F9FE34F
:100BA00099830DC0833631F0833771F0833509F0B6
:100BB00059C021C0F801808189830E5F1F4F8824AE
:100BC0008394912C530113C02801F2E04F0E511C65
:100BD000F801A080B18036FE03C0692D70E002C02C
:100BE0006FEF7FEFC5010E9439074C018201F32DA1
:100BF000FF773F2E16C0280122E0420E511CF8015B
:100C0000A080B18036FE03C0692D70E002C06FEF96
:100C10007FEFC5010E942E074C01F32DF0683F2E97
:100C2000820133FC1BC0822D90E088169906B0F437
:100C3000B60180E290E00E9444072A94F4CFF501C7
:100C400037FC859137FE81915F01B60190E00E94EB
:100C5000440721102A9421E0821A910881149104FA
:100C600071F7E8C0843611F0893641F5F80137FE96
:100C700007C060817181828193810C5F1F4F08C022
:100C800060817181072E000C880B990B0E5F1F4F3E
:100C9000F32DFF763F2E97FF09C0909580957095B4
:100CA00061957F4F8F4F9F4FF0683F2E2AE030E0D5
:100CB000A3010E948007882E861845C0853731F42D
:100CC000232D2F7EB22E2AE030E025C0932D997F70
:100CD000B92E8F36C1F018F4883579F0B5C0803759
:100CE00019F0883721F0B0C0E92FE061BE2EB4FEC4
:100CF0000DC0FB2DF460BF2E09C034FE0AC0292FA1
:100D00002660B22E06C028E030E005C020E130E0C9
:100D100002C020E132E0F801B7FE07C060817181B6
:100D2000828193810C5F1F4F06C06081718180E0DA
:100D300090E00E5F1F4FA3010E948007882E861847
:100D4000FB2DFF773F2E36FE0DC0232D2E7FA22ECA
:100D5000891458F434FE0BC032FC09C0832D8E7EFA
:100D6000A82E05C0B82CA32C03C0B82C01C0B92CE8
:100D7000A4FE0FC0FE01E80DF11D8081803321F437
:100D80009A2D997EA92E09C0A2FE06C0B394B394F1
:100D900004C08A2D867809F0B394A3FC11C0A0FE8C
:100DA00006C0B21488F4280C922C9B180EC0B21402
:100DB00060F4B60180E290E00E944407B394F7CF5C
:100DC000B21418F42B1802C0982C212CA4FE10C0C9
:100DD000B60180E390E00E944407A2FE17C0A1FC88
:100DE00003C088E790E002C088E590E0B6010CC03F
:100DF0008A2D867859F0A1FE02C08BE201C080E204
:100E0000A7FC8DE2B60190E00E944407891438F4F3
:100E1000B60180E390E00E9444079A94F7CF8A9449
:100E2000F301E80DF11D8081B60190E00E944407B6
:100E30008110F5CF222009F442CEB60180E290E085
:100E40000E9444072A94F6CFF6018681978102C05A
:100E50008FEF9FEF2B96E2E10C94FA07FC010590CF
:100E6000615070400110D8F7809590958E0F9F1FAC
:100E70000895FC016150704001900110D8F78095F1
:100E800090958E0F9F1F08950F931F93CF93DF931D
:100E9000FB01238121FD03C08FEF9FEF2CC022FFB8
:100EA00016C046815781248135814217530744F487
:100EB000A081B1819D012F5F3F4F318320838C93AF
:100EC000268137812F5F3F4F3783268314C08B01E4
:100ED000EC01FB010084F185E02D0995892BE1F6F9
:100EE000D80116968D919C911797019617969C9311
:100EF0008E931697CE01DF91CF911F910F91089598
:100F0000FA01AA27283051F1203181F1E8946F933A
:100F10006E7F6E5F7F4F8F4F9F4FAF4FB1E03ED0E0
:100F2000B4E03CD0670F781F891F9A1FA11D680F7E
:100F3000791F8A1F911DA11D6A0F711D811D911DB1
:100F4000A11D20D009F468943F912AE0269F112426
:100F50003019305D3193DEF6CF010895462F47708A
:100F6000405D4193B3E00FD0C9F7F6CF462F4F70E5
:100F7000405D4A3318F0495D31FD4052419302D043
:100F8000A9F7EACFB4E0A6959795879577956795E9
:100F9000BA95C9F700976105710508959B01AC01E9
:100FA0000A2E06945795479537952795BA95C9F710
:100FB000620F731F841F951FA01D08952F923F92EB
:100FC0004F925F926F927F928F929F92AF92BF9259
:100FD000CF92DF92EF92FF920F931F93CF93DF9305
:100FE000CDB7DEB7CA1BDB0B0FB6F894DEBF0FBE62
:100FF000CDBF09942A88398848885F846E847D84AF
:101000008C849B84AA84B984C884DF80EE80FD80B0
:101010000C811B81AA81B981CE0FD11D0FB6F89426
:0E102000DEBF0FBECDBFED010895F894FFCFE7
:10102E0056304C313A0056304C323A00436F6E74A3
:0A103E003A00202020200025640065
:00000001FF
