:100000000C949B000C94B8000C94B8000C94B800AD
:100010000C94B8000C94B8000C94B8000C94B80080
:100020000C94B8000C94B8000C94B8000C94B80070
:100030000C94B8000C94B8000C94B8000C94B80060
:100040000C94B8000C94B8000C94CC010C94B8003B
:100050000C94B8000C94B8000C94B8000C94B80040
:100060000C94B8000C94B8000C94B8000C94B80030
:100070000C94B8000C94B8000C94B8000C94B80020
:100080000C94B8000C94E3010C94B8000C94B800E4
:100090000C94B8000C94B8000C94B8000C94B80000
:1000A0000C94B8000C94B8000C94B8000C94B800F0
:1000B0000C94B80007634236B79BD8A71A39685624
:1000C00018AEBAAB558C1D3CB7CC5763BD6DEDFD7A
:1000D000753EF6177231BF000000803F0800000037
:1000E000BE922449123EABAAAA2ABECDCCCC4C3E2D
:1000F00000000080BEABAAAAAA3E00000000BF001C
:100100000000803F0000000000084178D3BB438717
:10011000D1133D190E3CC3BD4282AD2B3E68EC822B
:1001200076BED98FE1A93E4C80EFFFBE01C4FF7FB0
:100130003F000000000011241FBECFEFD8E0DEBF5B
:10014000CDBF11E0A0E0B1E0E6E5FBE102C0059023
:100150000D92A235B107D9F721E0A2E5B1E001C0C7
:100160001D92AC35B207E1F70E943C010C94A90D39
:100170000C940000EF920F93EE24E39400E021E052
:1001800040E060E081E00E941304E12C01E020E007
:1001900040E855E260E070E080E00E94AB047894B3
:1001A000E1E9F0E0808188608083808185608083E0
:1001B00082E0809371008EE490E0909399008093A8
:1001C000980060E086E00E94F40160E087E00E9411
:1001D000F40160E088E00E94F40160E089E00E94A0
:1001E000F40160E08AE00E94F40160E08BE00E948C
:1001F000F40160E084E10E94F40160E085E10E9486
:10020000F40186E091E00E943E050F91EF90089581
:10021000CF93C82F682F661F6627661F86E00E944F
:100220005303C6FB662760F987E00E945303C5FBB2
:10023000662760F988E00E945303C4FB662760F9D3
:1002400089E00E945303C3FB662760F98AE00E949D
:100250005303C2FB662760F98BE00E945303C1FB86
:10026000662760F984E10E9453036C2F617085E179
:100270000E945303CF9108950E94BA0080915201C9
:10028000843608F46CC01092520181EA0E949A04EC
:10029000809354018FE99FE00197F1F700C00000BF
:1002A0008FEF0E949A04809356018FE99FE0019797
:1002B000F1F700C0000082EA0E949A048093540182
:1002C0008FE99FE00197F1F700C000008FEF0E94D7
:1002D0009A04C82F809357016091560170E080E026
:1002E00090E00E94F00620E030E040EA50E40E94F6
:1002F0007C0720E030E04FE753E40E9446064B01C4
:100300005C016C2F70E080E090E00E94F00620E03D
:1003100030E040EA50E40E947C0720E030E04FE704
:1003200053E40E9446066B017C018AE291E00E9440
:100330003E0542E0C501B4010E948B0585E391E0D2
:100340000E943E058DE391E00E943E0542E0C70118
:10035000B6010E948B0588E491E00E943E058091E1
:100360005301882309F48ACF1092530183EA0E9433
:100370009A04809354018FE99FE00197F1F700C040
:100380000000809155010E949A048093540180914D
:1003900055010E94080172CF1F920F920FB60F9263
:1003A00011248F9381E0809353018091C6008A309D
:1003B00021F08D3011F0809355018F910F900FBE79
:1003C0000F901F9018951F920F920FB60F92112445
:1003D0008F93809152018F5F809352018F910F9084
:1003E0000FBE0F901F901895863008F045C0611120
:1003F0001CC094B1482F477021E030E002C0220FAA
:10040000331F4A95E2F7292B24B9843029F4E9EC0B
:10041000F0E090819F7E9083833009F043C1E9EC46
:10042000F0E08081877F80830895613099F444B142
:10043000877021E030E0B90102C0660F771F8A950E
:10044000E2F7CB01962F9095942394B995B1892B1F
:1004500085B90895623009F025C144B1877021E063
:1004600030E0B90102C0660F771F8A95E2F7CB0131
:100470008095842384B908959AEF980F963008F0F8
:1004800052C0611117C047B190E002968770907812
:10049000992324F40197886F9F6F019621E030E043
:1004A000B90102C0660F771F8A95E2F7CB01842B52
:1004B00087B908956130E1F447B190E00296877002
:1004C0009078992324F40197886F9F6F019621E01B
:1004D00030E0B90102C0660F771F8A95E2F7CB01C1
:1004E000962F9095942397B998B1892B88B9089540
:1004F000623009F0D7C047B190E0029687709078DB
:10050000992324F40197886F9F6F019621E030E0D2
:10051000B90102C0660F771F8A95E2F7CB0180957B
:10052000842387B9089594EF980F983008F065C038
:1005300061112AC09AB1282F30E02C5F3F4F2770FD
:100540003078332334F421503109286F3F6F2F5F07
:100550003F4F41E050E0BA0102C0660F771F2A9575
:10056000E2F79B01292B2AB98C3029F4E1ECF0E069
:1005700090819F7E90838D3009F094C0E1ECF0E093
:100580008081877F808308956130E1F44AB190E0F3
:10059000049687709078992324F40197886F9F6F51
:1005A000019621E030E0B90102C0660F771F8A95FD
:1005B000E2F7CB01962F909594239AB99BB1892BA2
:1005C0008BB90895623009F06DC04AB190E004968D
:1005D00087709078992324F40197886F9F6F019614
:1005E00021E030E0B90102C0660F771F8A95E2F77B
:1005F000CB01809584238AB908959CEE980F9230A0
:1006000008F050C0611117C04DB190E0029787709B
:100610009078992324F40197886F9F6F019621E0C9
:1006200030E0B90102C0660F771F8A95E2F7CB016F
:10063000842B8DB908956130E1F44DB190E00297BB
:1006400087709078992324F40197886F9F6F0196A3
:1006500021E030E0B90102C0660F771F8A95E2F70A
:10066000CB01962F909594239DB99EB1892B8EB97D
:1006700008956230B9F44DB190E002978770907898
:10068000992324F40197886F9F6F019621E030E051
:10069000B90102C0660F771F8A95E2F7CB018095FA
:1006A00084238DB908958630F8F4662371F045B13E
:1006B000877021E030E0B90102C0660F771F8A958C
:1006C000E2F7CB01842B85B9089545B1877021E00D
:1006D00030E0B90102C0660F771F8A95E2F7CB01BF
:1006E0008095842385B908959AEF980F963088F500
:1006F0006623B9F048B190E002968770907899230C
:1007000024F40197886F9F6F019621E030E0B901D2
:1007100002C0660F771F8A95E2F7CB01842B88B958
:10072000089548B190E0029687709078992324F458
:100730000197886F9F6F019621E030E0B90102C0F8
:10074000660F771F8A95E2F7CB018095842388B9DD
:10075000089594EF980F983088F56623B9F04BB15F
:1007600090E0049687709078992324F40197886F1D
:100770009F6F019621E030E0B90102C0660F771F3C
:100780008A95E2F7CB01842B8BB908954BB190E0A9
:10079000049687709078992324F40197886F9F6F4F
:1007A000019621E030E0B90102C0660F771F8A95FB
:1007B000E2F7CB01809584238BB908959CEE980FC6
:1007C000923080F56623B9F04EB190E002978770C1
:1007D0009078992324F40197886F9F6F019621E008
:1007E00030E0B90102C0660F771F8A95E2F7CB01AE
:1007F000842B8EB908954EB190E00297877090785F
:10080000992324F40197886F9F6F019621E030E0CF
:10081000B90102C0660F771F8A95E2F7CB01809578
:1008200084238EB90895EF92FF920F931F93CF9375
:10083000DF93F82EC62FD42F122F81E0E81233C099
:100840008CB580618CBD62E084E00E94F40160E0C0
:1008500083E00E94F40160E082E00E94F40161E024
:1008600082E00E94530360E085E00E94F401F2FE02
:1008700004C08DB581608DBD03C08DB58E7F8DBDEB
:10088000F1FE04C08CB582608CBD03C08CB58D7F39
:100890008CBDF0FE04C08CB581608CBD17C08CB5DA
:1008A0008E7F8CBD13C08CB58F7E8CBD60E084E0E4
:1008B0000E94F40162E083E00E94F40162E082E0C1
:1008C0000E94F40162E085E00E94F401112321F00E
:1008D0008CB580648CBD03C08CB58F7B8CBDDD2353
:1008E00021F08CB580688CBD03C08CB58F778CBD32
:1008F000002321F08CB580628CBD03C08CB58F7D48
:100900008CBDC1FF04C08CB588608CBD03C08CB5A4
:10091000877F8CBDC0FF04C08CB584608CBD03C0D4
:100920008CB58B7F8CBDDF91CF911F910F91FF9084
:10093000EF900895CF93C82F60E082E00E945303A8
:10094000CEBD0DB407FEFDCF61E082E00E945303EF
:100950008EB5CF910895EF92FF920F931F939AB1A6
:100960009E7F9AB9E1ECF0E09081906190839AB11A
:1009700092609AB9908198609083A0ECB0E09C91CD
:100980009D7F922B9C93908130E8039F80011124DE
:100990009F77092B0083908130E4E39E700111243E
:1009A0009F7BE92AE082E2ECF0E090819F73982B34
:1009B00090839081907C9660908321112AC080342E
:1009C00099F4403855426105710539F480E493E0AB
:1009D0009093C5008093C4004CC080E493E0909352
:1009E000C5008093C40045C0811143C040385542C2
:1009F0006105710539F487E690E09093C500809316
:100A0000C40037C087E690E09093C5008093C4008F
:100A100030C0223071F58034C1F4E0ECF0E0808128
:100A20008D7F8083403855426105710539F480E43B
:100A300093E09093C5008093C4001BC080E493E0D2
:100A40009093C5008093C40014C0811112C0403837
:100A500055426105710539F48FEC90E09093C50023
:100A60008093C40006C08FEC90E09093C500809303
:100A7000C4001F910F91FF90EF900895AC01892B56
:100A800079F020E007C09091C00095FFFCCF309333
:100A9000C6002F5FFA01E20FF11D30813111F3CF53
:100AA00008950F931F93CF93DF93182F092F9F93D0
:100AB0008F938CE491E09F938F931F921F921F92CC
:100AC0001F920E948F0A01960E946E09EC018DB759
:100AD0009EB708960FB6F8949EBF0FBE8DBF2097A5
:100AE00099F00F931F938CE491E09F938F93DF9382
:100AF000CF930E94BF0A0F900F900F900F900F900E
:100B00000F908C2F9D2F02C080E090E0DF91CF915D
:100B10001F910F9108958F929F92AF92BF92CF92A3
:100B2000DF92EF92FF92CF934B015C01C42F0E94A2
:100B3000B8066B017C01072E000C880B990B0E94F4
:100B4000F0069B01AC01C501B4010E94D9054B011F
:100B50005C016C2F70E080E090E00E94EE069B014B
:100B6000AC0160E070E080E291E40E94E9079B0143
:100B7000AC01C501B4010E947C070E94B8064B017C
:100B80005C01C6010E9451050E943E058FE491E080
:100B90000E943E05C4010E9451050E943E05CF916E
:100BA000FF90EF90DF90CF90BF90AF909F908F908D
:100BB00008955058BB27AA270E94F1050C944207BC
:100BC0000E94340738F00E943B0720F039F49F3F21
:100BD00019F426F40C9431070EF4E095E7FB0C941D
:100BE0002B07E92F0E94530758F3BA1762077307C0
:100BF0008407950720F079F4A6F50C9475070EF498
:100C0000E0950B2EBA2FA02D0B01B90190010C011C
:100C1000CA01A0011124FF27591B99F0593F50F434
:100C2000503E68F11A16F040A22F232F342F44278C
:100C3000585FF3CF469537952795A795F040539584
:100C4000C9F77EF41F16BA0B620B730B840BBAF054
:100C50009150A1F0FF0FBB1F661F771F881FC2F7BF
:100C60000EC0BA0F621F731F841F48F487957795D3
:100C70006795B795F7959E3F08F0B0CF9395880F8D
:100C800008F09927EE0F9795879508950E945A06C8
:100C90000C9442070E943B0758F00E94340740F032
:100CA00029F45F3F29F00C942B0751110C9476071F
:100CB0000C9431070E94530768F39923B1F355232D
:100CC00091F3951B550BBB27AA276217730784075F
:100CD00038F09F5F5F4F220F331F441FAA1FA9F3F5
:100CE00035D00E2E3AF0E0E832D091505040E695E3
:100CF000001CCAF72BD0FE2F29D0660F771F881F44
:100D0000BB1F261737074807AB07B0E809F0BB0B36
:100D1000802DBF01FF2793585F4F3AF09E3F51054A
:100D200078F00C942B070C9476075F3FE4F3983E21
:100D3000D4F3869577956795B795F7959F5FC9F733
:100D4000880F911D9695879597F90895E1E0660FB4
:100D5000771F881FBB1F621773078407BA0720F02D
:100D6000621B730B840BBA0BEE1F88F7E095089596
:100D70000E94BF066894B1110C94760708950E94F2
:100D80005B0788F09F5798F0B92F9927B751B0F0BB
:100D9000E1F0660F771F881F991F1AF0BA95C9F7FF
:100DA00014C0B13091F00E947507B1E008950C9421
:100DB0007507672F782F8827B85F39F0B93FCCF3D4
:100DC000869577956795B395D9F73EF4909580957C
:100DD000709561957F4F8F4F9F4F0895E89409C09C
:100DE00097FB3EF490958095709561957F4F8F4F5E
:100DF0009F4F9923A9F0F92F96E9BB279395F69574
:100E0000879577956795B795F111F8CFFAF4BB0FF1
:100E100011F460FF1BC06F5F7F4F8F4F9F4F16C055
:100E2000882311F096E911C0772321F09EE8872FDF
:100E3000762F05C0662371F096E8862F70E060E09B
:100E40002AF09A95660F771F881FDAF7880F969514
:100E5000879597F9089597F99F6780E870E060E0BB
:100E600008959FEF80EC089500240A941616170643
:100E700018060906089500240A941216130614068B
:100E800005060895092E0394000C11F4882352F0EE
:100E9000BB0F40F4BF2B11F460FF04C06F5F7F4FA6
:100EA0008F4F9F4F089557FD9058440F551F59F08D
:100EB0005F3F71F04795880F97FB991F61F09F3F47
:100EC00079F087950895121613061406551FF2CF70
:100ED0004695F1DF08C0161617061806991FF1CFC0
:100EE00086957105610508940895E894BB276627E7
:100EF0007727CB0197F908950E948F070C9442073A
:100F00000E94340738F00E943B0720F0952311F02F
:100F10000C942B070C94310711240C9476070E9433
:100F2000530770F3959FC1F3950F50E0551F629FD3
:100F3000F001729FBB27F00DB11D639FAA27F00D32
:100F4000B11DAA1F649F6627B00DA11D661F829F59
:100F50002227B00DA11D621F739FB00DA11D621F3E
:100F6000839FA00D611D221F749F3327A00D611D5B
:100F7000231F849F600D211D822F762F6A2F11243D
:100F80009F5750409AF0F1F088234AF0EE0FFF1F70
:100F9000BB1F661F771F881F91505040A9F79E3FC7
:100FA000510580F00C942B070C9476075F3FE4F317
:100FB000983ED4F3869577956795B795F795E7951D
:100FC0009F5FC1F7FE2B880F911D9695879597F926
:100FD0000895FA01EE0FFF1F309621053105A1F1AA
:100FE0006115710561F48038BFE39B0749F168948E
:100FF0009038810561F08038BFEF9B0741F099235D
:101000004AF5FF3FE1053105210519F1E8940894FF
:10101000E795D901AA2329F4AB2FBE2FF85FD0F3AF
:1010200010C0FF5F70F4A695E0F7F73950F019F0A3
:10103000FF3A38F49F779F930DD00F9007FC90589C
:10104000089546F00C94310760E070E080E89FE37B
:1010500008954FE79F775F934F933F932F930E949D
:10106000E4082F913F914F915F910E947C070C946F
:10107000410829F416F00C942B070C9475070C9476
:1010800031070E945B07A8F39638A0F707F80F9284
:10109000E8942BE33AEA48EB5FE70E9492070F924D
:1010A0000F920F924DB75EB70F920E942C09E4EB9E
:1010B000F0E00E9473084F915F91EF91FF91E595E9
:1010C000EE1FFF1F49F0FE57E0684427EE0F441F54
:1010D000FA95E1F74195550B0E94A6080F9007FE7F
:1010E0000C949A080895DF93CF931F930F93FF9268
:1010F000EF92DF927B018C01689406C0DA2EEF013B
:101100000E948F07FE01E894A591259135914591A4
:101110005591A6F3EF010E94F105FE019701A80188
:10112000DA9469F7DF90EF90FF900F911F91CF91C4
:10113000DF9108959B01AC0160E070E080E89FE3DF
:101140000C9446060C942B070C9460090E945B07D4
:10115000D8F39923C9F3940F511DA3F39150504034
:1011600094F059F0882332F0660F771F881F915052
:101170005040C1F79E3F51052CF7880F911D969561
:10118000879597F908955F3FACF0983E9CF0BB2798
:10119000869577956795B79508F4B1609395C1F7F3
:1011A000BB0F58F711F460FFE8CF6F5F7F4F8F4F91
:1011B0009F4FE3CF0C94760716F00C9460090C94C3
:1011C000310768940C942B070E945B07A8F39923BE
:1011D000C1F3AEF3DF93CF931F930F93FF92C92F09
:1011E000DD2788232AF02197660F771F881FDAF7FB
:1011F00020E030E040E85FEB9FE3883920F0803E5C
:1012000038F021968F770E94DA05ECEDF0E004C00B
:101210000E94DA05E9E0F1E00E9473088B01BE014B
:10122000EC01FB2E6F5771097595771F880B990B91
:101230000E94F00628E132E741E35FE30E948F0756
:10124000AF2D9801AE01FF900F911F91CF91DF91CB
:101250000E94F1050C944207FA01DC01AA0FBB1FA2
:101260009B01AC01BF5728F422273327442750782D
:1012700020C0B75190F4AB2F0024469537952795A1
:10128000011CA395D2F3002071F0220F331F441FDD
:10129000B395DAF30ED00C94D90561307105A0E84E
:1012A0008A07B94630F49B01AC0166277727882767
:1012B0009078309621F020833183428353830895C0
:1012C0009F3F31F0915020F4879577956795B795BA
:1012D000880F911D9695879597F908950F931F9301
:1012E000CF93DF938230910510F482E090E0E0919B
:1012F0005A01F0915B0120E030E0A0E0B0E03097CF
:1013000019F1408151810281138148175907C8F0B2
:101310008417950769F4109731F012960C93129781
:1013200013961C9327C000935A0110935B0122C0AF
:101330002115310519F04217530718F49A01BD0120
:10134000EF01DF01F801DBCF21153105F9F0281B92
:10135000390B2430310580F48A819B816115710538
:1013600021F0FB019383828304C090935B018093FF
:101370005A01FE01329644C0FE01E20FF31F819331
:10138000919322503109398328833AC02091580122
:1013900030915901232B41F4209102013091030136
:1013A000309359012093580120910001309101019F
:1013B0002115310541F42DB73EB7409104015091FC
:1013C0000501241B350BE0915801F0915901E217FA
:1013D000F307A0F42E1B3F0B2817390778F0AC0158
:1013E0004E5F5F4F2417350748F04E0F5F1F509335
:1013F0005901409358018193919302C0E0E0F0E0DD
:10140000CF01DF91CF911F910F910895CF93DF937B
:10141000009709F481C0FC01329713821282A091D7
:101420005A01B0915B01109781F420813181820FC4
:10143000931F20915801309159012817390751F510
:10144000F0935901E093580167C0ED0120E030E0CE
:10145000CE17DF0740F44A815B819E01411551059B
:10146000F1F0EA01F5CFD383C28340815181840F2B
:10147000951FC817D90759F488819981840F951F42
:101480000296918380838A819B8193838283211535
:10149000310529F4F0935B01E0935A013DC0E90165
:1014A000FB83EA8349915991C40FD51FEC17FD07BF
:1014B00061F480819181840F951F0296E9019983DF
:1014C0008883828193819B838A83E0E0F0E0129697
:1014D0008D919C911397009719F0FD01DC01F7CFD6
:1014E0008D919C9111979D012E5F3F4F820F931F0D
:1014F00020915801309159012817390769F4309724
:1015000029F410925B0110925A0102C013821282D8
:10151000B0935901A0935801DF91CF910895AEE0A7
:10152000B0E0E5E9FAE00C94800D0D891E898F8901
:10153000988D26E02C831A83098397FF02C080E0F0
:1015400090E801979E838D83AE01455E5F4F698D64
:101550007A8DCE0101960E94E10A4D815E8157FD90
:101560000AC02F813885421753070CF49A01F801FD
:10157000E20FF31F10822E96E4E00C949C0DAEE077
:10158000B0E0E5ECFAE00C94800D0D891E8986E050
:101590008C831A8309838FEF9FE79E838D83AE012F
:1015A000475E5F4F6F89788DCE0101960E94E10AF8
:1015B000EF81F885E00FF11F10822E96E4E00C9485
:1015C0009C0DABE0B0E0E7EEFAE00C94720D6C011C
:1015D0007B018A01FC0117821682838181FFCCC1C5
:1015E000CE0101963C01F6019381F70193FD8591AF
:1015F00093FF81917F01882309F4BAC1853239F4C0
:1016000093FD859193FF81917F01853229F4B60185
:1016100090E00E94D80CE7CF912C212C312CFFE1D7
:10162000F315D8F08B3279F038F4803279F08332C8
:10163000A1F4232D20611DC08D3261F0803369F447
:10164000232D216016C0832D8260382EE32DE460A7
:101650003E2E2AC0F32DF8601DC037FC2DC020EDB2
:10166000280F2A3040F08E32B9F436FC81C1232D88
:101670002064322E19C036FE06C08AE0989E200DE6
:101680001124922E11C0EAE02E9E200D1124222E4C
:10169000F32DF0623F2E08C08C3621F4832D806834
:1016A000382E02C0883641F4F70193FD859193FFEF
:1016B00081917F018111B3CF982F9F7D95549330F5
:1016C00028F40C5F1F4F9FE399830DC0833631F0E0
:1016D000833771F0833509F059C021C0F80180814A
:1016E00089830E5F1F4F88248394912C530113C06C
:1016F0002801F2E04F0E511CF801A080B18036FEA7
:1017000003C0692D70E002C06FEF7FEFC5010E943A
:10171000CD0C4C018201F32DFF773F2E16C028011E
:1017200022E0420E511CF801A080B18036FE03C0B9
:10173000692D70E002C06FEF7FEFC5010E94C20CFF
:101740004C01F32DF0683F2E820133FC1BC0822D2B
:1017500090E088169906B0F4B60180E290E00E940D
:10176000D80C2A94F4CFF50137FC859137FE81918E
:101770005F01B60190E00E94D80C21102A9421E06C
:10178000821A91088114910471F7E8C0843611F02F
:10179000893641F5F80137FE07C060817181828189
:1017A00093810C5F1F4F08C060817181072E000C70
:1017B000880B990B0E5F1F4FF32DFF763F2E97FF7F
:1017C00009C090958095709561957F4F8F4F9F4F81
:1017D000F0683F2E2AE030E0A3010E94140D882E0D
:1017E000861845C0853731F4232D2F7EB22E2AE08E
:1017F00030E025C0932D997FB92E8F36C1F018F4B3
:10180000883579F0B5C0803719F0883721F0B0C03D
:10181000E92FE061BE2EB4FE0DC0FB2DF460BF2E9B
:1018200009C034FE0AC0292F2660B22E06C028E067
:1018300030E005C020E130E002C020E132E0F801F4
:10184000B7FE07C060817181828193810C5F1F4F59
:1018500006C06081718180E090E00E5F1F4FA301A0
:101860000E94140D882E8618FB2DFF773F2E36FE22
:101870000DC0232D2E7FA22E891458F434FE0BC0E8
:1018800032FC09C0832D8E7EA82E05C0B82CA32C57
:1018900003C0B82C01C0B92CA4FE0FC0FE01E80D96
:1018A000F11D8081803321F49A2D997EA92E09C0E3
:1018B000A2FE06C0B394B39404C08A2D867809F0C2
:1018C000B394A3FC11C0A0FE06C0B21488F4280C87
:1018D000922C9B180EC0B21460F4B60180E290E026
:1018E0000E94D80CB394F7CFB21418F42B1802C08E
:1018F000982C212CA4FE10C0B60180E390E00E9439
:10190000D80CA2FE17C0A1FC03C088E790E002C07B
:1019100088E590E0B6010CC08A2D867859F0A1FECA
:1019200002C08BE201C080E2A7FC8DE2B60190E02C
:101930000E94D80C891438F4B60180E390E00E942C
:10194000D80C9A94F7CF8A94F301E80DF11D8081A9
:10195000B60190E00E94D80C8110F5CF222009F446
:1019600042CEB60180E290E00E94D80C2A94F6CFD5
:10197000F6018681978102C08FEF9FEF2B96E2E1FF
:101980000C948E0DFC010590615070400110D8F749
:10199000809590958E0F9F1F0895FC0161507040B7
:1019A00001900110D8F7809590958E0F9F1F089594
:1019B0000F931F93CF93DF93FB01238121FD03C07E
:1019C0008FEF9FEF2CC022FF16C0468157812481E4
:1019D00035814217530744F4A081B1819D012F5FE7
:1019E0003F4F318320838C93268137812F5F3F4F78
:1019F0003783268314C08B01EC01FB010084F18541
:101A0000E02D0995892BE1F6D80116968D919C91D0
:101A10001797019617969C938E931697CE01DF9198
:101A2000CF911F910F910895FA01AA27283051F103
:101A3000203181F1E8946F936E7F6E5F7F4F8F4FFF
:101A40009F4FAF4FB1E03ED0B4E03CD0670F781F5E
:101A5000891F9A1FA11D680F791F8A1F911DA11D43
:101A60006A0F711D811D911DA11D20D009F468947C
:101A70003F912AE0269F11243019305D3193DEF624
:101A8000CF010895462F4770405D4193B3E00FD0DA
:101A9000C9F7F6CF462F4F70405D4A3318F0495DC5
:101AA00031FD4052419302D0A9F7EACFB4E0A695A8
:101AB0009795879577956795BA95C9F700976105CA
:101AC000710508959B01AC010A2E06945795479520
:101AD00037952795BA95C9F7620F731F841F951F15
:101AE000A01D08952F923F924F925F926F927F9226
:101AF0008F929F92AF92BF92CF92DF92EF92FF921E
:101B00000F931F93CF93DF93CDB7DEB7CA1BDB0BC9
:101B10000FB6F894DEBF0FBECDBF09942A8839886E
:101B200048885F846E847D848C849B84AA84B98475
:101B3000C884DF80EE80FD800C811B81AA81B98181
:101B4000CE0FD11D0FB6F894DEBF0FBECDBFED0195
:061B50000895F894FFCF98
:101B560000005C0120002053797374656D20636F6B
:101B66006E66696775726174696F6E20636F6D70FA
:101B76006C657465642E2E2E0A0053656E736F7243
:101B860020313A2000205620202020200053656E68
:101B9600736F7220323A200020560A002564002E08
:021BA60000003D
:00000001FF
