S01400004C61626F7261746F72696F312E7372656361
S11300000C9434000C9451000C9451000C94510045
S11300100C9447010C9451000C9451000C94510021
S11300200C9451000C9451000C9451000C94510008
S11300300C9451000C9451000C9451000C945100F8
S11300400C9451000C9451000C9451000C945100E8
S11300500C9451000C9451000C9451000C945100D8
S11300600C9451000C94510011241FBECFEFD8E022
S1130070DEBFCDBF11E0A0E0B1E0E0E8F3E002C0F4
S113008005900D92A031B107D9F721E0A0E1B1E0CC
S113009001C01D92A431B207E1F70E94DE000C9466
S11300A0BE010C94000085B1816085B985B18D7F56
S11300B085B9E0E0F1E085818BB92FEF83ED90E322
S11300C0215080409040E1F700C0000084818BB94A
S11300D02FEF83ED90E3215080409040E1F700C082
S11300E0000083818BB92FEF83ED90E32150804092
S11300F09040E1F700C0000082818BB92FEF83EDBF
S113010090E3215080409040E1F700C000008181DD
S11301108BB92FEF83ED90E3215080409040E1F7BD
S113012000C0000080818BB9089585B1826085B9D3
S113013085B18E7F85B98BB18F608BB98FE19EE4D9
S11301400197F1F700C0000085B1816085B985B1E0
S11301508D7F85B9809101018BB98FE19EE4019770
S1130160F1F700C00000089585B1826085B985B1BA
S11301708E7F85B98BB1806F8BB98FE19EE4019737
S1130180F1F700C0000085B1816085B985B18D7F2C
S113019085B9809102018BB98FE19EE40197F1F753
S11301A000C000000895E8E6F0E08081826080836A
S11301B0ECE6F0E08081876080830895F89484B150
S11301C0836084B985B1836085B98FEF8AB91BB820
S11301D01092C10088B1876088B987B187B90E943D
S11301E0D300789480911101813099F4ECE6F0E029
S11301F08081897F80830E945300109211011BB873
S113020080911101811105C0ECE6F0E080818660E7
S1130210808380911301882331F085B1826085B990
S113022085B18E7F85B980911201882331F085B123
S1130230826085B985B18E7F85B980911301843040
S113024080F08BB18F708BB9ECE6F0E08081897F10
S1130250808385B1816085B90E94950081E0809397
S1130260100180911201843008F4BCCF8BB1807FDF
S11302708BB9ECE6F0E08081897F808385B1816071
S113028085B90E94B40081E080931001ABCF1F9226
S11302900F920FB60F9211242F933F934F936F93A6
S11302A07F938F939F932FEF60E772E0215060401C
S11302B07040E1F700C00000309904C081E08093F1
S11302C0110102C0109211018BB1883021F13199D2
S11302D022C0809113018430F0F44BB190E0019777
S11302E021E030E0B90102C0660F771F8A95E2F77A
S11302F0CB01809584238BB9809113018F5F809308
S113030013014BB190E0019702C0220F331F8A956D
S1130310E2F7242B2BB98BB1803821F1329922C01A
S1130320809112018430F0F44BB190E0039621E007
S113033030E0B90102C0660F771F8A95E2F7CB015E
S1130340809584238BB9809112018F5F8093120171
S11303504BB190E0039602C0220F331F8A95E2F757
S1130360242B2BB99F918F917F916F914F913F9146
S11303702F910F900FBE0F901F901895F894FFCFF8
S11303803F065B4F666D7D077F6F777C395E7971C1
S9030000FC
