:100000000C9434000C9451000C9451000C94510049
:100010000C9451000C946E000C9451000C945100FF
:100020000C9451000C9451000C9451000C9451000C
:100030000C9451000C9451000C9451000C945100FC
:100040000C9451000C9451000C94E0000C9451005D
:100050000C9451000C9451000C9451000C945100DC
:100060000C9451000C94510011241FBECFEFD8E026
:10007000DEBFCDBF11E0A0E0B1E0E2EFF1E002C0F1
:1000800005900D92AE31B107D9F721E0AEE1B1E0B4
:1000900001C01D92AE31B207E1F70E945E000C94E0
:1000A000F7000C940000E8E6F0E080818460808333
:1000B000EDE6F0E080818C6F808308958BB18C6FCA
:1000C0008BB98AB183708AB90E94B9000E9453002B
:1000D00080E091E00E94EA007894FFCF1F920F9297
:1000E0000FB60F9211242F933F934F935F936F930B
:1000F0007F938F939F93AF93BF93EF93FF934A990F
:1001000005C082E191E00E94EA0022C04B9905C03F
:1001100084E191E00E94EA001BC04C9905C086E191
:1001200091E00E94EA0014C04D9905C088E191E079
:100130000E94EA000DC04E9905C08AE191E00E943C
:10014000EA0006C04F9904C08CE191E00E94EA00E9
:10015000FF91EF91BF91AF919F918F917F916F919F
:100160005F914F913F912F910F900FBE0F901F9075
:1001700018958AB18E7F8AB98AB182608AB9E0EC1B
:10018000F0E01082808182608083E1ECF0E01082F8
:10019000808188698083E2ECF0E010828081866053
:1001A00080838FEC90E09093C5008093C400789496
:1001B00008959091C00095FFFCCF8093C6000895EC
:1001C0001F920F920FB60F9211240F900FBE0F9037
:1001D0001F901895CF93DF93EC0103C021960E94E6
:1001E000D90088818111FACFDF91CF910895F894D9
:0201F000FFCF3F
:1001F200554152542046554E43494F4E414E444F6D
:0E0202000A00550044004C005200410042002A
:00000001FF
